:03020000020208EF
:0302610002020393
:05020300121AD580FE77
:03000000020200F9
:0100030032CA
:01000B0032C2
:0100130032BA
:01001B0032B2
:0100230032AA
:01002B0032A2
:01003300329A
:01003B003292
:01004300328A
:01004B003282
:01005300327A
:01005B003272
:01006300326A
:0101000032CC
:0101040032C8
:0101080032C4
:01010C0032C0
:0101100032BC
:0101140032B8
:0101180032B4
:0101200032AC
:0101240032A8
:0101280032A4
:01012C0032A0
:01013000329C
:010134003298
:010138003294
:01013C003290
:01014000328C
:010148003284
:01014C003280
:01015000327C
:010154003278
:010158003274
:01015C003270
:01016000326C
:01017000325C
:010174003258
:010178003254
:01017C003250
:01018000324C
:010184003248
:010188003244
:01018C003240
:01019000323C
:010194003238
:010198003234
:01019C003230
:0101A000322C
:0101A8003224
:0101AC003220
:0101B000321C
:0101B4003218
:0101B8003214
:010264002277
:08026500AA82AB837C007D003E
:0B026D00C3EC9AED9B50147EB07F04A0
:050278001EBEFF011F86
:0B027D00EE4F70F70CBC00E80D80E5B0
:010288002253
:08028900AA82AB837C007D001A
:0B029100C3EC9AED9B50147E0A7F0026
:05029C001EBEFF011F62
:0B02A100EE4F70F70CBC00E80D80E58C
:0102AC00222F
:0E02AD0075AF0790E67BE090E67CF0DAF32276
:0102BB002220
:0E02BC0090E6A3E054FEF090E6A5E0FA54FEB2
:0E02CA00F090E6047480F00000000090E61A48
:0E02D800E4F00000000090E6047406F0000060
:0D02E600000090E6497486F00000000090D2
:0E02F300E6497486F00000000090E64974862B
:0E030100F00000000090E6497486F000000055
:0E030F000090E61A7411F00000000090E60461
:0E031D00E4F00000000090E6047480F00000A0
:0E032B00000090E618E4F00000000090E604E8
:0E0339007402F00000000090E6187409F00055
:0D03470000000090E604E4F0000000002239
:0E035400AA8275B4FFC287C2808AA0D280C27E
:020362008022F7
:0B036400AA8275B400D287C2818A0310
:0C036F008A047D00AE157F00EE2CFCEF30
:0E037B003DFD8B067F00C3EE9CEF64808DF08D
:0E03890063F08095F05014EB2440F582E434CC
:0D039700E7F583E5A0F0D281C2810B80CB99
:0303A400C28722EB
:0E03A70090E68AE4F0903A19E090E68BF0229E
:0A03B500758288120354C2817A0099
:0303BF00BA04007D
:0E03C200501674022A24B8F582E434E6F5835E
:0A03D000E0F5A0D281C2810A80E5A9
:0C03DA0075150475820012036475828A98
:0A03E600120354751501758204120C
:0E03F000036490E745E4F07582A11203547592
:0803FE0015027582060203647A
:0B040600AA82903A0DE0FBB502012233
:0E041100758284C002120354D00275B400D26A
:0E041F0087C281E5A0D281C281E5A0FB600307
:03042D000204388E
:080430000000000000020411AD
:0D043800758281C002120354D0028A821224
:080445000C2D758280020354A6
:0C044D00AA82903A0DE0FBB50202800587
:050459008A8212040676
:0C045E0075828412035475150675820027
:0A046A0012036475828512035475B5
:09047400150275820612036402F0
:02047D0003A7D3
:02047F007A0001
:03048100BAFF00BF
:0D048400500B90E678E0FB20E0030A80F0CA
:0C04910090E678E0FA20E204EA20E10B9B
:0B049D0090E678E04440F075820122F8
:0404A8007582002237
:0204AC007A00D4
:0304AE00BAFF0092
:0D04B100500B90E678E0FB20E0030A80F09D
:0E04BE0090E678E0FA30E20B90E678E04440F9
:0504CC00F07582012221
:0404D100758200220E
:0204D5007A00AB
:0304D700BAFF0069
:0E04DA00500F90E678E0FB20E20475820022CD
:0304E8000A80EC9B
:0404EB0075820122F3
:0204EF007A0091
:0304F100BAFF004F
:0E04F400500F90E678E0FB20E60475820022AF
:030502000A80EC80
:0405050075820122D8
:09050900AA82C3E49508E433FB67
:0E05120090E678E04480F0C002C0031204D5E9
:0E052000D003D00290E679EAF0C002C00312C8
:0C052E00047FE582D003D0027012E509C2
:0C053A00600A90E678E04440F01204EF04
:040546007582002298
:0E054A00EB601090000AC002C003120289D0BC
:0505580003D00280B594
:0C055D00E509600890E678E0FA4440F000
:040569007582012274
:0C056D00AA82AB837C00E50C7003F582D1
:01057900225F
:0A057A007508647509007582A2C0BF
:0E05840002C003C004120509E582D004D003B2
:07059200D0026003020673B2
:0C05990090E679E50BF0C002C003C0043E
:0E05A50012047FE582D004D003D0026003026E
:0205B3000673CD
:0C05B50090E679E50AF0C002C003C00423
:0E05C10012047FE582D004D003D00260030252
:0205CF000673B1
:0E05D10090E678E04440F0C002C003C004127F
:0D05DF0004EF90E678E04480F01204D5901F
:0E05EC00E67974A3F012047FE582D004D003F8
:0E05FA00D002707590E679E08A828B83F0C0A3
:0E06080002C003C0041204ACE582D004D0038B
:05061600D0027059FD47
:0C061B00C3ED950C502A90E679E08A822D
:0E0627008B83F0A3AA82AB83C002C003C00481
:0E063500C0051204ACE582D005D004D003D07D
:0806430002702D0D8D0480D022
:0E064B0090E678E04420F090E679E0C00412DA
:0E06590004ACE582D004701290E678E04440D4
:0C066700F090E679E0C0041204EFD0042B
:030673008C822254
:0C067600AA82AB837C00E50F7003F582C4
:010682002255
:0A0683007508647509007582A2C0B5
:0E068D0002C003C004120509E582D004D003A8
:07069B00D0026003020733E7
:0C06A20090E679E50EF0C002C003C00431
:0E06AE0012047FE582D004D003D00260030264
:0206BC00073302
:0C06BE0090E679E50DF0C002C003C00416
:0E06CA0012047FE582D004D003D002705CFDE4
:0C06D800C3ED950F50478A828B83E0FE33
:0E06E400A3AA82AB8390E679EEF0903A04E090
:0D06F200FFEE2FF0903A02E0FEA3E0FF9033
:0E06FF003A0274012EF0E43FA3F0C002C003E3
:0E070D00C004C00512047FE582D005D004D0E0
:0A071B0003D00270130D8D0480B3AB
:0E07250090E678E04440F0C0041204EFD004E7
:030733008C822293
:0A073600903A19E0FA903A00E0F55D
:060740000AA3E0F50B8A9C
:0C0746000C90E740C00212056DAB82D0A1
:0E075200027C00903A00E0FDA3E0FE903A0029
:0A076000EA2DF0EC3EA3F08B82229C
:0B076A00AA82903A00E0F50DA3E0F534
:090775000E8A0F90E740C0021249
:0E077E000676D0027B00903A00E0FCA3E0FD7E
:0B078C00903A00EA2CF0EB3DA3F022B5
:0C079700AA82AB837C00E5117003F582A0
:0107A3002233
:0A07A4007508647509007582A6C08F
:0E07AE0002C003C004120509E582D004D00386
:0707BC00D002600302088176
:0C07C30090E679E510F0C002C003C0040D
:0E07CF0012047FE582D004D003D00260030242
:0207DD00088191
:0E07DF0090E678E04440F0C002C003C004126F
:0D07ED0004EF90E678E04480F01204D5900F
:0E07FA00E67974A7F012047FE582D004D003E4
:0E080800D002707590E679E08A828B83F0C092
:0E08160002C003C0041204ACE582D004D0037B
:05082400D0027059FD37
:0C082900C3ED9511502A90E679E08A8218
:0E0835008B83F0A3AA82AB83C002C003C00471
:0E084300C0051204ACE582D005D004D003D06D
:0808510002702D0D8D0480D012
:0E08590090E678E04420F090E679E0C00412CA
:0E08670004ACE582D004701290E678E04440C4
:0C087500F090E679E0C0041204EFD0041B
:030881008C822244
:0C088400AA82AB837C00E5137003F582B0
:010890002245
:0A0891007508647509007582A6C0A1
:0E089B0002C003C004120509E582D004D00398
:0708A900D002600302097395
:0C08B00090E679E512F0C002C003C0041D
:0E08BC0012047FE582D004D003D00260030254
:0208CA000973B0
:0408CC00AD127E00EB
:0908D000C3EE9513400302096513
:0E08D9008A828B83E0FFA3AA82AB8390E6792C
:0D08E700EFF0C002C003C004C005C006123F
:0E08F400047FE582D006D005D004D003D002E8
:0C090200706F0D8D120E8E04ED20E3C20C
:0C090E00C3EE951350BC90E678E0444026
:0E091A00F0C002C003C004C005C0061204EF06
:0A0928007508647509007582A612B7
:0E0932000509E582D006D005D004D003D0021E
:0E094000703190E679EDF0C002C003C004C033
:0E094E0005C00612047FE582D006D005D00455
:09095C00D003D00270110208D092
:0E09650090E678E04440F0C0041204EFD004A5
:09097300903A05E512F08C822295
:0A097C00903A19E0FA903A05E0F510
:09098600108A1190E740C0021232
:0E098F000797AB82D002903A05E0FCEA2CF00C
:03099D008B822228
:0E09A00075B11F75B6FF903A0EE4F0903A0D57
:0E09AE00F0903A0F7410F0903A107410F09020
:0609BC003A117401F02263
:0E09C20090E6017480F00000000090E670E402
:0E09D000F090E671F0D2A243B40453B2BF53CC
:0E09DE00B4FDC2A343B40843B2AEC285438049
:0E09EC008E903A11E0F4FA53020F903A10E0A8
:0E09FA004AF5B175B6FF900001120265C28782
:0E0A0800C281903A10E0FA740F4AF5B153B46F
:050A1600FB7A007B00EB
:0E0A1B0020A2208A048B057E007F00C3EC948D
:0E0A2900FFED94FFEE9400EF64809480500780
:070A37000ABA00E00B80DDAC
:070A3E0030A2047AC8800217
:020A45007A64D1
:0E0A4700903A0CEAF0903A08E4F0A3F0A3F025
:080A5500A3F0903A07E4F0223F
:030A5D000209C2C9
:0E0A600075B283C280C281C28790E60B740318
:0E0A6E00F00000000090E60174A3F00000000C
:0E0A7C00001202BC90E609E4F00000000090B9
:0E0A8A00E60274C0F00000000090E603740A5B
:060A9800F0000000002246
:0B0A9E00903A0CE0FA74162AF07A007F
:030AA900BAFF0091
:090AAC005007D281C2810A80F4D6
:0E0AB500D287D284C284D284C284D284C28406
:0E0AC300D284C28453B27153B4F775B6F0906A
:0D0AD1003A11E0FA55B1FBB50203120A60BC
:0E0ADE00903A0FE0FA740F4AF5B175B6FF2298
:0C0AEC0085B31475B3FF903A19E0FB903D
:0E0AF8003A08E0FCA3E0FDA3E0FEA3E0FF78D7
:0E0B06000079007A00903A08EB2CF0E83DA34D
:0E0B1400F0E93EA3F0EA3FA3F090E68BE0602C
:0E0B220022FA759B40759AE775AF07903A0767
:050B3000E0F990E67BF6
:0E0B3500E0F590D28129F9C281DAF5903A07F5
:020B4300E9F0D7
:0B0B45008514B390E68BE0FABA400084
:050B50005003020A9EA3
:010B5500227D
:0E0B560090E60174C2F090E6F3E4F090E6C37E
:0E0B6400F090E6C1F090E6C27420F090E6C07A
:0C0B7200744EF090E6F4E4F0759B1A7AE3
:0A0B7E001A7B3A8B9A759E60759DF4
:0E0B8800E4C0027A201202ADD00290E6C6E46C
:0D0B9600F090E6C77410F090E6C8E4F0900F
:0E0BA300E6C9F090E6CAF090E6CBF090E6CC02
:0E0BB100E4F090E6CDF090E60B7401F0000049
:0D0BBF00000090E6047480F000000000903B
:0E0BCC00E6047406F00000000090E604E4F079
:0E0BDA000000000090E61AE4F0000000009019
:0E0BE800E61A7410F00000000090E6E27401BE
:0E0BF600F00000000090E6CE7401F000000058
:0E0C04000090E6CFE4F00000000090E6D0E49F
:0E0C1200F00000000090E6D1E4F000000000C9
:0D0C200090E6E474FFF000000000C28322A3
:0C0C2D00AA82903A0DE0FB903A0EF09085
:0E0C39003A0D74035AF08AF005F07410800230
:020C470025E0A6
:0E0C4900D5F0FBFA903A0FF0903A10EAF074F2
:070C57000FF5B14AF5B122CF
:01006C00286B
:01006D000191
:04006E005A54455843
:040072000A0F000071
:010076000089
:010077000187
:06007800E300000000009F
:0C007E0000000000000000000000000076
:0A008A00303030303030303030308C
:010C5E002273
:0E0C5F0090E678E04480F01204D590E67974B7
:0A0C6D0090F012047FE5826001227E
:0E0C770090E6797444F012047FE58260012259
:0E0C850090E6797414F090E678E04440F012A6
:070C930004EFE5826001227D
:0E0C9A00900079E0FA430201900079EAF0221E
:0E0CA80090E683E4F07420F07410F07430F0E5
:0E0CB60090E6837401F07421F07411F0743133
:0E0CC400F090E6837412F07432F07406F0744F
:030CD20026F022E7
:0A0CD500AA82E51624E0500375160C
:010CDF001FF5
:0D0CE00090E6BFE0701090E6BEE0FBC3950B
:090CED0016500690E6BEE0F51673
:0C0CF60075AF078A9B85159A759E4175A5
:0A0D02009DE790E67C7403F07A0090
:0C0D0C00C3EA9516501190E67BE0FB90C6
:0B0D1800E67CF090E67CE4F00A80E945
:0B0D2300E5160425E0FA90E740F09090
:0E0D2E00E7417403F090E68AE4F090E68BEA69
:020D3C00F022A3
:0E0D3E00903A17E0FAA3E0FBC374409AE49BDE
:080D4C0050067C407D0080048C
:040D54008A048B057D
:0E0D5800903A19ECF07D00903A17EAC39CF037
:050D6600EB9DA3F0224B
:0B0D6B00903A5AE0FABA3103020E562B
:040D7600BA3201226A
:060D7A00BA3403020E5919
:060D8000BA3503020E6CFF
:060D8600BA3903020E2938
:060D8C00BA3C03020E4D0B
:060D9200BA5103020E87B6
:050D9800BA8002804456
:050D9D00BA820280177C
:050DA200BA8302805C31
:050DA700BA860280463F
:050DAC00BA8B02801B60
:050DB100BA8E02806A09
:030DB600020EAC7E
:0E0DB900758282120354C28190E6BAE0F5A062
:050DC700D281C281226F
:0D0DCC0075828112035475828B120354123C
:080DD90002BC75828002035484
:0A0DE10090E6BAE060047A80800218
:020DEB007A810B
:050DED008A820203549C
:0A0DF20090E6BAE060047A86800201
:020DFC007A87F4
:050DFE008A820203548B
:0E0E0300758283120354C28190E6BAE0F5A016
:0E0E1100D281C28190E6BBE0F5A0D281C28101
:010E1F0022B0
:090E200090E6BAE0F58202040636
:0E0E2900903A04E4F0903A02F0A3F090E6BB99
:0E0E3700E0FB7A0090E6BAE0FC7D00903A0005
:080E4500EC4AF0ED4BA3F02292
:090E4D0090E6BAE0903A05F022AB
:030E5600020A5D30
:0E0E5900120A5D90E6A5E054FEF090E6F574F6
:050E6700FFF0020B5634
:0D0E6C00D28390E6F574FFF00000000090C6
:0E0E7900E601E0FA54F0F000000000020A9ECC
:0E0E870090E6BCE0FABA0108903A1074F0F060
:020E95008009D2
:090E970090E6BAE0F582120C2D80
:0C0EA000903A10E0C4540F903A11F02278
:080EAC0090E6A0E04401F022F1
:0C0EB400C020C0E0C0F0C082C083C002BB
:0E0EC000C003C004C005C006C007C000C001CA
:0E0ECE00C0D075D00090E6B9E0FA903A5AF024
:0E0EDC0090E6B57401F090E6B9E0FA24F35008
:040EEA000302126A83
:070EEE00EA2A2A900EF573B9
:070EF500020F1C020FD002E6
:060EFC00126A02104D0213
:060F0200126A02126A02ED
:060F080010E502120002D8
:060F0E00120202121302A0
:060F14001218021229026E
:020F1A00122E95
:0A0F1C0090E6B8E0FABA8002800DFA
:050F2600BA8102801EEB
:050F2B00BA8202802FD4
:030F300002126A40
:0E0F330090E740E4F090E741F090E68AF090FD
:080F4100E68B7402F002126A53
:0E0F490090E740E4F090E741F090E68AF090E7
:080F5700E68B7402F002126A3D
:0C0F5F0090E6BCE0FA600FBA01028019B5
:050F6B00BA80028005C0
:050F7000BA812F801E74
:0E0F750090E6A0E0FA53020190E740EAF08017
:010F83003A33
:0E0F840090E6A1E0FA53020190E740EAF08007
:010F92002B33
:0E0F930090E6A2E0FA53020190E740EAF080F7
:010FA1001C33
:0E0FA20090E6BCE0C31314540324A3F582E4CC
:0E0FB00034E6F583E0FA53020190E740EAF0E0
:0E0FBE0090E741E4F090E68AF090E68B740232
:040FCC00F002126AB3
:0A0FD00090E6B8E0FABA02028003CE
:030FDA0002126A96
:090FDD0090E6BAE0600302126A1A
:0C0FE60090E6BCE0FA600FBA0102801532
:050FF200BA8002800539
:050FF700BA8123801601
:0B0FFC0090E6A0E0FA54FEF002126A3A
:0B10070090E6A1E0FA54FEF002126A2D
:0B10120090E6A2E0FA54FEF002126A21
:0E101D0090E6BCE0C31314540324A3FAE43499
:0E102B00E6FB90E6BCE0C31314540324A3F5C7
:0E10390082E434E6F583E0FC5304FE8A828BE9
:0610470083ECF002126AC6
:0A104D0090E6B8E0FABA0202800350
:0310570002126A18
:09105A0090E6BAE0600302126A9C
:0C10630090E6BCE0FA600FBA01028014B5
:05106F00BA80028005BB
:05107400BA8120801488
:0A10790090E6A0E0FA4401F0804187
:0A10830090E6A1E0FA4401F0803786
:0A108D0090E6A2E0FA4401F0802D85
:0E10970090E6BCE0C31314540324A3FAE4341F
:0E10A500E6FB90E6BCE0C31314540324A3F54D
:0E10B30082E434E6F583E0FC4304FE8A828B7F
:0310C10083ECF0CD
:0E10C40090E6BCE05480C423541FFA90E6BCB2
:0E10D200E0FB740F5B420290E683EAF07420AC
:0510E0004AF002126A53
:0A10E50090E6BBE0FABA01028019A0
:0510EF00BA0202802698
:0510F400BA0302804D6B
:0610F900BA06030211B962
:0610FF00BA07030211CB49
:031105000211F6DE
:0A1108007A0C7B1B90E6B3EBF0902D
:08111200E6B4740CF002126A4D
:0B111A0090E680E0FA30E7127A287BB4
:0A1125001B90E6B3EBF090E6B47403
:05112F0028F002126A25
:0A1134007A587B1B90E6B3EBF090B5
:08113E00E6B47458F002126AD5
:0A11460090E6BAE0FABA0102800F49
:05115000BA0202801C40
:05115500BA030280292D
:05115A00BA044A8036D2
:06115F007582E77AE77BD0
:041165001A8B157557
:061169001605120CD50270
:02116F00126A02
:061171007582EC7AEC7BB4
:041177001A8B157545
:06117B001617120CD5024C
:02118100126AF0
:0A11830075828A7A8A7B008B15754D
:06118D00160A120CD50247
:02119300126ADE
:061195007582037A037B62
:04119B001B8B157520
:06119F001608120CD50237
:0211A500126ACC
:0A11A7007A887B1B90E6B3EBF09012
:0811B100E6B47488F002126A32
:0A11B9007A1E7B1B90E6B3EBF0906A
:0811C300E6B4741EF002126A8A
:0B11CB0090E680E0FA30E7127A587BD3
:0A11D6001B90E6B3EBF090E6B47452
:0511E00058F002126A44
:0A11E5007A287B1B90E6B3EBF09034
:0711EF00E6B47428F08074DF
:0A11F60090E6A0E0FA4401F0806AE0
:02120000806804
:0E12020090E740E4F090E68AF090E68B7401ED
:03121000F0805714
:05121300120CA880523E
:0E12180090E740E4F090E68AF090E68B7401D7
:03122600F0804114
:05122900120CA8803C3E
:0E122E0090E6B8E0FABA823490E6BCE0C31352
:0B123C0014540325E0245CF582E43428
:0C1247003AF583E4F0A3F090E685E09017
:0D125300E740F090E684E0FA90E741F0906B
:0A126000E68AE4F090E68B7402F0D9
:0B126A0090E6B8E0FABA40030215233A
:05127500BAC002800375
:03127A0002154D0D
:0E127D0090E6BFE0FB7A0090E6BEE0FC7D004C
:0E128B00903A17EC4AF0ED4BA3F0120D3E9096
:09129900E6B9E0FABA220280472E
:0612A200BA30030213ED57
:0612A800BA3303021449F1
:0612AE00BA380302134BE5
:0612B400BA3A03021374B4
:0612BA00BA3B030213B36E
:0612C000BA3D030213CC4D
:0612C600BA50030214619E
:0612CC00BA58030214826F
:0512D200BA8402802F28
:0512D700BA850280420F
:0512DC00BA88028055F4
:0512E100BA8C028059E7
:0312E600021519D5
:0E12E90090E6B5E4F090E68AF090E68B74286B
:0D12F700F090E6B3E4F090E6B4746CF00201
:02130400154D85
:0B130600758284120354903A19E0F540
:0813110015758200120364123D
:0513190003A702154DC1
:0B131E00758285120354903A19E0F527
:08132900157582001203641225
:0513310003A702154DA9
:071336001203B51203A70228
:02133D00154D4C
:0C133F0090E6BAE0F58212044D02154D54
:0E134B0090E6BBE0FB7A0090E6BAE0FC7D0085
:0E135900903A00EC4AF0ED4BA3F090E68AE4E7
:0D136700F0120736E58290E68BF002154D7E
:0E137400903A02E0FAA3E0FB8A0490E740EC16
:0D138200F08B0290E741EAF0903A04E09011
:0A138F00E742F075080075090175CA
:0D13990082A2120509AA8290E743EAF090B3
:0D13A600E68AE4F090E68B7404F002154D29
:0E13B30090E6BAE0903A05F090E68AE4F01277
:0B13C100097CE58290E68BF002154DE0
:0A13CC007508007509017582A6126C
:0E13D6000509AA8290E740EAF090E68AE4F06A
:0913E40090E68B7401F002154D36
:0613ED00759B077A077BE7
:0C13F3003A8B9A759E417A417BE78B9DF6
:0D13FF00C0027A061202ADD00275B6F09061
:0E140C003A11E0FA55B1FBB5021490E740E446
:0E141A00F0903A0FE0FA740F4AF5B175B6FF84
:02142800800939
:09142A0090E7407401F01209C2C0
:0E14330090E747E4F090E748F090E68AF090EA
:08144100E68B7409F002154D61
:0E14490090E7407406F090E741E4F090E68AE8
:0A145700F090E68B7402F002154DD0
:0E14610090E7407403F0903A0DE0FA90E741F6
:0E146F00F090E742E4F090E68AF090E68B748D
:05147D0003F002154D13
:0E14820090E678E04480F01204D590E679748C
:0E14900091F012047F90E7407401F090E6792D
:0D149E00E090E741F01204AC90E679E09098
:0E14AB00E741F01204AC90E679E090E742F0E1
:0E14B9001204AC90E679E090E743F01204AC28
:0E14C70090E679E090E744F01204AC90E679EC
:0D14D500E090E741F01204AC90E679E09061
:0E14E200E742F01204AC90E678E04420F0906F
:0E14F000E679E090E743F01204AC90E678E075
:0E14FE004440F090E679E090E744F01204EFED
:0D150C0090E68AE4F090E68B7405F08034E0
:0A15190090E6A0E0FA4401F0802AF9
:0C15230090E6BFE0700690E6BEE06016A7
:0E152F00903A5B7401F090E68BE4F05391EF7C
:08153D0090E65D7401F08019D5
:08154500120D6B90E68BE4F03F
:0E154D005391EF90E65D7401F090E6A0E0FA95
:03155B004480F0D9
:0E155E00D0D0D001D000D007D006D005D004E8
:0D156C00D003D002D083D082D0F0D0E0D0E8
:0215790020321E
:0E157B00C0E0C082C0835391EF90E65D740221
:08158900F0D083D082D0E032E3
:0E159100C0E0C082C0835391EF90E65D740409
:08159F00F0D083D082D0E032CD
:0E15A700C0E0C082C0835391EF90E65D7408EF
:0815B500F0D083D082D0E032B7
:0E15BD00C0E0C082C0835391EF90E65D7410D1
:0815CB00F0D083D082D0E032A1
:0E15D300C0E0C082C0835391EF90E65D7420AB
:0815E100F0D083D082D0E0328B
:0E15E900C0E0C082C0835391EF90E65D744075
:0815F700F0D083D082D0E03275
:0C15FF00C020C0E0C0F0C082C083C00269
:0E160B00C003C004C005C006C007C000C00177
:0E161900C0D075D000C2E8120D3E903A5AE0E3
:06162700FABA30028060F7
:05162D00BA3302805BEE
:05163200BA3802802D12
:05163700BA3A028051E7
:05163C00BA3B028033FF
:05164100BA3D028047E4
:05164600BA50028042D1
:05164B00BA5802803DC9
:05165000BA840280389D
:05165500BA850280339C
:05165A00BA8802802E99
:05165F00BA8C22802975
:0E16640090E68AE4F0120736E58290E68BF0FD
:021672008019DD
:0E16740090E68AE4F012097CE58290E68BF0A5
:021682008009DD
:0916840090E68AE4F090E68BF098
:0E168D005391EF90E65F7401F0D2E8D0D0D018
:0E169B0001D000D007D006D005D004D003D077
:0C16A90002D083D082D0F0D0E0D02032FC
:0C16B500C020C0E0C0F0C082C083C002B2
:0E16C100C003C004C005C006C007C000C001C1
:0E16CF00C0D075D000C2E8903A5BE0FA60200F
:0D16DD00903A5BE4F090E6BFE0FB7A0090ED
:0E16EA00E6BEE0FC7D00903A17EC4AF0ED4BB6
:0516F800A3F0120D6BD0
:0C16FD00120D3E903A5AE0FABA31030296
:02170900177354
:05170B00BA3202805C0F
:06171000BA340302177356
:06171600BA35030217734F
:05171C00BA3902802A29
:05172100BA3C0280311A
:05172600BA51028047EA
:06172B00BA8003021773EF
:06173100BA8203021773E7
:06173700BA8303021773E0
:06173D00BA8603021773D7
:05174300E4BA8B010473
:0317480002177312
:0C174B0090E68BE0F58212076A0217732B
:0B175700903A05E0F51290E68BE0F5FB
:081762001390E7401208840215
:02176A001773F3
:06176C00120AEC021773E3
:011772000076
:0E17730090E68BE4F05391EF90E65F7402F085
:0E178100903A17E0FAA3E0FB4A700890E6A049
:05178F00E0FA4480F0C7
:0E179400D2E8D0D0D001D000D007D006D005CA
:0E17A200D004D003D002D083D082D0F0D0E0AB
:0317B000D0203214
:0E17B300C0E0C082C0835391EF90E65F7404E3
:0817C100F0D083D082D0E032A9
:0E17C900C0E0C082C0835391EF90E65F7408C9
:0817D700F0D083D082D0E03293
:0E17DF00C0E0C082C0835391EF90E65F7410AB
:0817ED00F0D083D082D0E0327D
:0E17F500C0E0C082C0835391EF90E65F742085
:08180300F0D083D082D0E03266
:0E180B00C0E0C082C0835391EF90E65F74404E
:08181900F0D083D082D0E03250
:0E182100C0E0C082C0835391EF90E65F7480F8
:08182F00F0D083D082D0E0323A
:07183700751000751103900C
:06183E003A121207979018
:0E1844003A12E0FABA4324903A13E0FABA449A
:0E1852001C903A14E0FABA3014903A06740171
:0A186000F075101075110A90008A4F
:05186A00120797800544
:05186F00903A06E4F0D0
:021874007A00F8
:03187600BA0A00AB
:0E1879005012EA248AF582E43400F583E0FB85
:06188700BB30540A80E9A9
:07188D007510FB75110590B9
:091894003A121207977A007B005A
:03189D00BB050088
:0A18A000503CEB2412F582E4343AC8
:0E18AA00F583E0FCEA248AFDE43400FEECC481
:0E18B800540F901B8C93FF8D828E83F00AEAF2
:0E18C600248AFDE43400FE740F5C901B8C93AA
:0A18D400FC8D828E83F00A0B80BFAA
:0118DE0022E7
:0E18DF0090E680E04408F090E6007412F0906D
:0E18ED000002120265538EF81209A0C2AFC2AB
:0E18FB00E89000437402F09000447401F090F5
:0D190900004574B8F090E668E04408F090E6
:0A19160001007402F07AB47B0E8B1E
:0E19200004900101ECF0900102EAF090010445
:0A192E007402F07A7B7B158B0490A5
:0E1938000105ECF0900106EAF090010874023F
:0A194600F07A917B158B04900109E3
:0E195000ECF090010AEAF090010C7402F07ABB
:0A195E00A77B158B0490010DECF03F
:0C19680090010EEAF09001107402F07A79
:0A197400BD7B158B04900111ECF00F
:0C197E00900112EAF09001147402F07A5B
:0A198A00D37B158B04900115ECF0DF
:0C199400900116EAF09001187402F07A3D
:0A19A000E97B158B04900119ECF0AF
:0C19AA0090011AEAF09001207402F07A1B
:0A19B600FF7B158B04900121ECF07B
:0C19C000900122EAF09001247402F07AF9
:0A19CC00B57B168B04900125ECF0AA
:0C19D600900126EAF09001287402F07ADB
:0A19E200B37B178B04900129ECF091
:0C19EC0090012AEAF090012C7402F07ABD
:0A19F800C97B178B0490012DECF061
:0C1A020090012EEAF09001307402F07A9E
:0A1A0E00DF7B178B04900131ECF030
:0C1A1800900132EAF09001347402F07A80
:0A1A2400F57B178B04900135ECF000
:0C1A2E00900136EAF09001387402F07A62
:0A1A3A000B7B188B04900139ECF0CF
:0C1A440090013AEAF090013C7402F07A44
:0A1A5000217B188B0490013DECF09F
:0E1A5A0090013EEAF05391EF90E65D747FF04C
:0E1A680090E65CE0FA447FF090E65F74FFF0D9
:0E1A760090E65E74FFF0D2E8D2AF90E61174F5
:0E1A8400A0F00000000090E61074A0F000003A
:0D1A9200000090E61274E0F00000000090EB
:0E1A9F00E613E4F00000000090E61474A0F0DE
:0E1AAD000000000090E615E4F00000000012BA
:0D1ABB001837120C5F90E680E04482F09036
:0D1AC800000A12026590E680E054F7F0225B
:0C1AD50075B283C280C281C2871218DF84
:021AE10080FE85
:051AE7005A54455800AF
:0E1AEC00696E6F757474726166666963205569
:091AFA00464D20312E31357900F2
:081B030064656661756C7400F5
:011B0B0000D9
:0E1B0C0012010002FFFFFF401A22000100003C
:041B1A0001020301C0
:0A1B1E000A060002FFFFFF4001006D
:0E1B280009022E00010104C03209040000046D
:0E1B3600FFFFFF000705810200020007050106
:0E1B44000200020007058202000200070506EB
:041B5200020002008B
:021B560000008D
:0E1B580009022E00010104C03209040000043D
:0E1B6600FFFFFF000705810240000007050198
:0E1B740002400000070582024000000705063F
:041B8200024000001D
:021B860000005D
:041B88000403000052
:0E1B8C00303132333435363738394142434434
:031B9A00454600BD
:021B9D00000046
:011B9F000045
:0E1BA000018801010101010702070202020291
:0E1BAE000200200000000000002000360000B1
:041BBC000000003FE6
:0E1BC000020190010101010702020702020268
:0E1BCE00020020000000000000200000360091
:041BDC000000003FC6
:011BE000FF05
:011BE1000003
:081BE2000000000000000000FB
:06023700E478FFF6D8FD9B
:08021500794DE94400601B7AF9
:05021D0001901B9D781B
:03022200177592BB
:0A0225003AE493F2A308B8000205C2
:08022F0092D9F4DAF27592FF96
:08023D007800E84400600A7932
:03024500007592AF
:060248003AE4F309D8FCC2
:08024E007817E84400600C7908
:0B02560001903A00E4F0A3D8FCD9FAB4
:03020800758120DD
:0A020B00121AE3E582600302020309
:041AE30075820022E6
:00000001FF
