:03020000020206F1
:03025F0002020395
:03020300021B19C2
:0400000002020032C6
:01000B0032C2
:0100130032BA
:01001B0032B2
:0100230032AA
:01002B0032A2
:01003300329A
:01003B003292
:01004300328A
:01004B003282
:01005300327A
:01005B003272
:01006300326A
:0101000032CC
:0101040032C8
:0101080032C4
:01010C0032C0
:0101100032BC
:0101140032B8
:0101180032B4
:0101200032AC
:0101240032A8
:0101280032A4
:01012C0032A0
:01013000329C
:010134003298
:010138003294
:01013C003290
:01014000328C
:010148003284
:01014C003280
:01015000327C
:010154003278
:010158003274
:01015C003270
:01016000326C
:01017000325C
:010174003258
:010178003254
:01017C003250
:01018000324C
:010184003248
:010188003244
:01018C003240
:01019000323C
:010194003238
:010198003234
:01019C003230
:0101A000322C
:0101A8003224
:0101AC003220
:0101B000321C
:0101B4003218
:0101B8003214
:2002620022AE82AF837C007D00C3EC9EED9F501B7AB07B04EA24FFF8EB34FFF988028903E0
:20028200E84970F00CBC00E10D80DE22AE82AF837C007D00C3EC9EED9F501B7A0A7B00EA0D
:2002A20024FFF8EB34FFF988028903E84970F00CBC00E10D80DE2275AF0790E67BE090E6BB
:2002C2007CF0DAF3222290E6A3E0FF74FE5FF090E6A5E0FF74FE5FF090E6047480F00000CD
:2002E200000090E61AE4F00000000090E6047406F00000000090E6497486F000000000907B
:20030200E6497486F00000000090E6497486F00000000090E6497486F00000000090E61AE0
:200322007411F00000000090E604E4F00000000090E6047480F00000000090E618E4F00038
:2003420000000090E6047402F00000000090E6187409F00000000090E604E4F00000000072
:200362002275B283C280C281C28790E60B7403F00000000090E60174E3F000000000120227
:20038200C890E670E4F00000000090E609E4F00000000090E6207402F00000000090E621F3
:2003A200E4F00000000090E60274C8F00000000090E603740AF00000000090E6307440F092
:2003C2000000000090E631E4F00000000022AF8275B4FFC287C2808FA0D280C28022AF8284
:2003E20075B400D287C2818F068F047D00AA157B00EA2CFCEB3DFD8E027B00C3EA9CEB647D
:20040200808DF063F08095F05014EE2440F582E434E7F583E5A0F0D281C2810E80CBC28734
:200422002290E68AE4F0903A19E090E68BF0227582881203D0C2817F0074022F24B8F582D0
:20044200E434E6F583E0F5A0D281C2810FBF040040E77515047582001203E075828A120310
:20046200D07515017582041203E090E745E4F07582A11203D07515027582060203E0AF8283
:20048200903A0DE0FEB5070122758284C0071203D0D00775B400D287C281E5A0D281C281E8
:2004A200E5A0E5A07007000000000080DC758281C0071203D0D0078F82120C797582800241
:2004C20003D0AF82903A0DE0FEB5070280058F821204807582841203D0751506758200127E
:2004E20003E07582851203D07515027582061203E00204237F00BFFF00500D90E678E0FEA9
:2005020013920040030F80EE90E678E0FF20E204EF20E10D90E678E0FF74404FF0758201EC
:2005220022758200227F00BFFF00500D90E678E0FE13920140030F80EE90E678E0FF30E2D3
:200542000D90E678E0FF74404FF075820122758200227F0090E678E0FE20E204758200222F
:200562000FBFFF0040EE758201227F0090E678E0FE20E604758200220FBFFF0040EE758204
:200582000122AF82C3E49508E433FE90E678E0FD74804DF0C007C006120554D006D007907B
:2005A200E679EFF0C007C0061204F6E582D006D0077014E509600C90E678E0FD74404DF0B4
:2005C20012056C75820022EE601090000AC007C00612028ED006D00780B1E509600990E6AB
:2005E20078E0FF74404FF075820122AE82AF837D00E50C7003F58222750864750900758263
:20060200A2C007C006C005120584E582D005D006D00760030206FCAC0B90E679ECF0C007B0
:20062200C006C0051204F6E582D005D006D00760030206FC90E679E50AF0C007C006C005B1
:200642001204F6E582D005D006D00760030206FC90E678E0FC74404CF0C007C006C005121E
:20066200056C90E678E0FC74804CF012055490E67974A3F01204F6E582D005D006D0077047
:200682007990E679E08E828F83F0C007C006C005120527E582D005D006D007705DFCC3EC0D
:2006A200950C502A90E679E08E828F83F0A3AE82AF83C007C006C005C004120527E582D0AC
:2006C20004D005D006D00770310C8C0580D090E678E0FF74204FF090E679E0C00512052792
:2006E200E582D005701490E678E0FF74404FF090E679E0C00512056CD0058D8222AE82AF7C
:20070200837D00E50F7003F582227508647509007582A2C007C006C005120584E582D005B6
:20072200D006D00760030207C1AC0E90E679ECF0C007C006C0051204F6E582D005D006D018
:200742000760030207C190E679E50DF0C007C006C0051204F6E582D005D006D0077060FC7F
:20076200C3EC950F50498E828F83E090E679F08E828F83E0FBA3AE82AF83903A04E02BF0DF
:20078200903A02E0FAA3E0FB903A0274012AF0E43BA3F0C007C006C005C0041204F6E5829D
:2007A200D004D005D006D00770150C8C0580B190E678E0FF74404FF0C00512056CD0058D24
:2007C2008222903A19E0FF903A00E0F50AA3E0F50B8F0C90E740C0071205EDAE82D0077DE4
:2007E20000903A00E0FBA3E0FC903A00EF2BF0ED3CA3F08E8222AF82903A00E0F50DA3E0B1
:20080200F50E8F0F90E740C0071206FFD0077E00903A00E0FCA3E0FD903A00EF2CF0EE3D25
:20082200A3F022AE82AF837D00E5117003F582227508647509007582A6C007C006C00512C0
:200842000584E582D005D006D007600302091790E679E510F0C007C006C0051204F6E58206
:20086200D005D006D007600302091790E678E0FC74404CF0C007C006C00512056C90E678F2
:20088200E0FC74804CF012055490E67974A7F01204F6E582D005D006D007707990E679E038
:2008A2008E828F83F0C007C006C005120527E582D005D006D007705DFCC3EC9511502A9083
:2008C200E679E08E828F83F0A3AE82AF83C007C006C005C004120527E582D004D005D00686
:2008E200D00770310C8C0580D090E678E0FF74204FF090E679E0C005120527E582D0057073
:200902001490E678E0FF74404FF090E679E0C00512056CD0058D8222AE82AF837D00E5130D
:200922007003F582227508647509007582A6C007C006C005120584E582D005D006D0076077
:2009420003020A0D90E679E512F0C007C006C0051204F6E582D005D006D0076003020A0DE0
:20096200AC127B00C3EB951340030209FD8E828F83E0FAA3AE82AF8390E679EAF0C007C04A
:2009820006C005C004C0031204F6E582D003D004D005D006D00770730C8C120B8B05EC2033
:2009A200E3C2C3EB951350BC90E678E0FA74404AF0C007C006C005C004C00312056C75089F
:2009C200647509007582A6120584E582D003D004D005D006D007703390E679ECF0C007C076
:2009E20006C005C004C0031204F6E582D003D004D005D006D007701302096690E678E0FF46
:200A020074404FF0C00512056CD005903A05E512F08D8222903A19E0FF903A05E0F5108FD8
:200A22001190E740C007120825AE82D007903A05E02FF08E822275B11F75B6FF903A0EE4B4
:200A4200F0903A0DF0903A0F7410F0903A10F0903A11C4F02290E6017480F000000000902A
:200A6200E670E4F090E671F0D2A243B40453B2BF53B4FDC2A343B40843B2AEC28543808E9D
:200A8200903A11E0F4FF53070F903A10E04FF5B175B6FF900001120263C287C281903A10F6
:200AA200E0FF740F4FF5B153B4FB7E007F0020A210C3EE94FFEF94FF50070EBE00F00F80A4
:200AC200ED30A2047FC880027F64903A0CEFF0903A08E4F0A3F0A3F0A3F0903A07F02202AC
:200AE2000A57020363903A0CE02416F07F00D281C2810FBFFF0040F6D287D284C284D284E8
:200B0200C284D284C284D284C28453B27153B4F775B6F0903A11E0FF55B1FEB50703120A2D
:200B2200E4903A0FE0FF740F4FF5B175B6FF2285B31475B3FF903A19E0FE903A08E0FAA3D0
:200B4200E0FBA3E0FCA3E0FD8E0079007E007F00903A08E82AF0E93BA3F0EE3CA3F0EF3D41
:200B6200A3F090E68BE06022FA759B40759AE775AF07903A07E0F990E67BE0F590D2812996
:200B8200F9C281DAF5903A07E9F08514B390E68BE0FFBF40005003020AE72290E60174C25E
:200BA200F090E6F3E4F090E6C3F090E6C1F090E6C27420F090E6C0744EF090E6F4E4F0755F
:200BC2009B1B7E1B7F3A8F068E9A759E607E607FE48F068E9DC0027A201202B9D00290E669
:200BE200C6E4F090E6C77410F090E6C8E4F090E6C9F090E6CAF090E6CBF090E6CCF090E65E
:200C0200CDF090E60B04F00000000090E6047480F00000000090E6047406F00000000090CE
:200C2200E604E4F00000000090E61AE4F00000000090E61A7410F00000000090E6E27401BF
:200C4200F00000000090E6CE7401F00000000090E6CFE4F00000000090E6D0E4F0000000C6
:200C62000090E6D1E4F00000000090E6E474FFF000000000C28322AF82903A0DE0FE903A83
:200C82000EF0903A0D74035FF08FF005F07410800225E0D5F0FBFF903A0FF0903A10EFF0F7
:080CA200740FF5B14FF5B1220A
:20006C0028015A5445580A0F00000001E300000000000000000000000000000000003030A3
:08008C003030303030303030EC
:200CAA002290E678E0FF74804FF012055490E6797490F01204F6E58260012290E67974441D
:200CCA00F01204F6E58260012290E6797414F090E678E0FF74404FF012056CE58260012290
:200CEA00900079E04401F02290E683E4F07420F003F07430F07401F07421F07411F07431CE
:200D0A00F07412F07432F07406F07426F022AF82E51624E0500375161F90E6BFE070109065
:200D2A00E6BEE0FEC39516500690E6BEE0F51675AF078F9B85159A7E407FE7EE04F59E7E94
:200D4A00407FE70EBE00010F8F9D90E67C7403F07F00C3EF9516500E90E67BE0FE90E67C87
:200D6A00F0E4F00F80ECE5160425E0FF90E740F090E7417403F090E68AE4F090E68BEFF0AD
:200D8A0022903A17E0FEA3E0FFC374409EE49F50067C407D0080048E048F05903A19ECF056
:200DAA007D00903A17EEC39CF0EF9DA3F022903A5BE0FFBF3103020E81BF320122BF3403BB
:200DCA00020E84BF3503020E99BF3903020E54BF3C03020E78BF5103020EB5BF8002803F18
:200DEA00BF82028012BF86028046BF8B02801BBF8E02804D020EDA7582821203D0C28190E9
:200E0A00E6BAE0F5A0D281C281227582811203D075828B1203D01202C87582800203D0907F
:200E2A00E6BAE060047F8080027F818F820203D090E6BAE060047F8680027F878F82020346
:200E4A00D090E6BAE0F582020480903A04E4F0903A02F0A3F090E6BBE0FE7F0090E6BAE01C
:200E6A00FD7C00903A00ED4FF0EC4EA3F02290E6BAE0903A05F022020AE1120AE190E6A514
:200E8A00E0FF74FE5FF090E6F574FFF0020B9DD28390E6F574FFF00000000090E601E0FFB7
:200EAA0074F05FF000000000020AE790E6BCE0FFBF0108903A1074F0F0800990E6BAE0F5ED
:200ECA0082120C79903A10E0C4540F903A11F02290E6A0E0FF74014FF022C021C0E0C0F025
:200EEA00C082C083C007C006C005C004C003C002C001C000C0D075D00090E6B9E0FF903A9A
:200F0A005BF090E6B57401F090E6B9E0FF24F350030212B5EFF5F0240B83F582E5F02411A4
:200F2A0083F583E47349FDB57DB5B5184A4C5C6171760F0F121012121112121212121290B0
:200F4A00E6B8E0FFBF8002800DBF8102801EBF8202802F0212B590E740E4F090E741F090DE
:200F6A00E68AF090E68B7402F00212B590E740E4F090E741F090E68AF090E68B7402F0024B
:200F8A0012B590E6BCE0FF600FBF01028019BF80028005BF812F801E90E6A0E0FF53070182
:200FAA0090E740EFF0803A90E6A1E0FF53070190E740EFF0802B90E6A2E0FF53070190E77C
:200FCA0040EFF0801C90E6BCE0C31314540324A3F582E434E6F583E0FF53070190E740EF65
:200FEA00F090E741E4F090E68AF090E68B7402F00212B590E6B8E0FFBF020280030212B52F
:20100A0090E6BAE060030212B590E6BCE0FF600FBF01028016BF80028005BF81268018905E
:20102A00E6A0E0FF74FE5FF00212B590E6A1E0FF74FE5FF00212B590E6A2E0FF74FE5FF07F
:20104A000212B590E6BCE0C31314540324A3FEE434E6FF90E6BCE0C31314540324A3F58217
:20106A00E434E6F583E0FD5305FE8E828F83EDF00212B590E6B8E0FFBF020280030212B5D9
:20108A0090E6BAE060030212B590E6BCE0FF600FBF01028015BF80028005BF8123801690E4
:2010AA00E6A0E0FF74014FF0804390E6A1E0FF74014FF0803890E6A2E0FF74014FF0802D90
:2010CA0090E6BCE0C31314540324A3FEE434E6FF90E6BCE0C31314540324A3F582E434E662
:2010EA00F583E0FD4305FE8E828F83EDF090E6BCE05480C423541FFF90E6BCE0FE740F5E1C
:20110A00420790E683EFF074204FF00212B590E6BBE0FFBF01028019BF02028028BF03026E
:20112A008053BF06030211FCBF070302121002123F7E467F1B8F0690E6B3EEF090E6B47423
:20114A0046F00212B590E680E0FF30E7147E627F1B8F0690E6B3EEF090E6B47462F002126C
:20116A00B57E927F1B8F0690E6B3EEF090E6B47492F00212B590E6BAE0FFBF0102800FBF62
:20118A000202801EBF0302802DBF0452803C7582227E227F1B8F068E15751605120D18020D
:2011AA0012B57582277E277F1B8F068E15751617120D180212B575828A7E8A7F008F068EFC
:2011CA001575160A120D180212B575823E7E3E7F1B8F068E15751608120D180212B57EC2C5
:2011EA007F1B8F0690E6B3EEF090E6B474C2F00212B57E587F1B8F0690E6B3EEF090E6B460
:20120A007458F00212B590E680E0FF30E7147E927F1B8F0690E6B3EEF090E6B47492F002D7
:20122A0012B57E627F1B8F0690E6B3EEF090E6B47462F0807690E6A0E0FF74014FF0806B4D
:20124A00806990E740E4F090E68AF090E68B04F08059120CF2805490E740E4F090E68AF0F3
:20126A0090E68B04F08044120CF2803F90E6B8E0FFBF823790E6BCE0C31314540375F0029D
:20128A00A4245DF582743A35F0F583E4F0A3F090E685E090E740F090E684E0FF90E741F0F3
:2012AA0090E68AE4F090E68B7402F090E6B8E0FFBF4003021578BFC00280030215A290E618
:2012CA00BFE0FE7F0090E6BEE0FD7C00903A17ED4FF0EC4EA3F0120D8B90E6B9E0FFBF22E8
:2012EA00028047BF3003021437BF3303021497BF3803021396BF3A030213BFBF3B030213B3
:20130A00FEBF3D03021417BF50030214AFBF58030214D0BF8402802FBF85028042BF88027D
:20132A008055BF8C02805902156D90E6B5E4F090E68AF090E68B7428F090E6B3E4F090E635
:20134A00B4746CF00215A27582841203D0903A19E0F5157582001203E01204230215A275C6
:20136A0082851203D0903A19E0F5157582001203E01204230215A21204311204230215A293
:20138A0090E6BAE0F5821204C40215A290E6BBE0FE7F0090E6BAE0FD7C00903A00ED4FF01C
:2013AA00EC4EA3F090E68AE4F01207C4E58290E68BF00215A2903A02E0FEA3E090E740EEC2
:2013CA00F0903A02E0A3E090E741F0903A04E090E742F07508007509017582A2120584AF06
:2013EA008290E743EFF090E68AE4F090E68B7404F00215A290E6BAE0903A05F090E68AE41F
:20140A00F0120A16E58290E68BF00215A27508007509017582A6120584AF8290E740EFF094
:20142A0090E68AE4F090E68B04F00215A2759B077E077F3A8F068E9A759E417E417FE78F06
:20144A00068E9DC0027A061202B9D00275B6F0903A11E0FF55B1FEB5071490E740E4F090AC
:20146A003A0FE0FF740F4FF5B175B6FF800990E7407401F0120A5790E747E4F090E748F03F
:20148A0090E68AF090E68B7409F00215A290E7407406F090E741E4F090E68AF090E68B7419
:2014AA0002F00215A290E7407403F0903A0DE0FF90E741F090E742E4F090E68AF090E68B7D
:2014CA007403F00215A290E678E0FF74804FF012055490E6797491F01204F690E74074015B
:2014EA00F090E679E090E741F012052790E679E090E741F012052790E679E090E742F012FE
:20150A00052790E679E090E743F012052790E679E090E744F012052790E679E090E741F0AF
:20152A0012052790E679E090E742F012052790E678E0FF74204FF090E679E090E743F01282
:20154A00052790E678E0FF74404FF090E679E090E744F012056C90E68AE4F090E68B74054A
:20156A00F0803590E6A0E0FF74014FF0802A90E6BFE0700690E6BEE06016903A5C7401F0C9
:20158A0090E68BE4F05391EF90E65D7401F0801A120DB890E68BE4F05391EF90E65D740100
:2015AA00F090E6A0E0FF74804FF0D0D0D000D001D002D003D004D005D006D007D083D08228
:2015CA00D0F0D0E0D02132C0E0C082C0835391EF90E65D7402F0D083D082D0E032C0E0C056
:2015EA0082C0835391EF90E65D7404F0D083D082D0E032C0E0C082C0835391EF90E65D7448
:20160A0008F0D083D082D0E032C0E0C082C0835391EF90E65D7410F0D083D082D0E032C0BB
:20162A00E0C082C0835391EF90E65D7420F0D083D082D0E032C0E0C082C0835391EF90E61C
:20164A005D7440F0D083D082D0E032C021C0E0C0F0C082C083C007C006C005C004C003C0A9
:20166A0002C001C000C0D075D000C2E8120D8B903A5BE0FFBF30028060BF3302805BBF3819
:20168A0002802DBF3A028051BF3B028033BF3D028047BF50028042BF5802803DBF840280E3
:2016AA0038BF85028033BF8802802EBF8C22802990E68AE4F01207C4E58290E68BF0801940
:2016CA0090E68AE4F0120A16E58290E68BF0800990E68AE4F090E68BF05391EF90E65F7438
:2016EA0001F0D2E8D0D0D000D001D002D003D004D005D006D007D083D082D0F0D0E0D021F3
:20170A0032C021C0E0C0F0C082C083C007C006C005C004C003C002C001C000C0D075D000E6
:20172A00C2E8903A5CE06020903A5CE4F090E6BFE0FE7F0090E6BEE0FD7C00903A17ED4F39
:20174A00F0EC4EA3F0120DB8120D8B903A5BE0FFBF31028054BF32028049BF3402804ABF3D
:20176A0035028045BF3902801BBF3C028021BF51028035BF80028031BF8202802CE4BF865F
:20178A000104802590E68BE0F5821207F8801A903A05E0F51290E68BE0F51390E740120921
:2017AA001A8006120B3180010090E68BE4F05391EF90E65F7402F0903A17E0F5F0A3E0455F
:2017CA00F0700990E6A0E0FF74804FF0D2E8D0D0D000D001D002D003D004D005D006D00778
:2017EA00D083D082D0F0D0E0D02132C0E0C082C0835391EF90E65F7404F0D083D082D0E01D
:20180A0032C0E0C082C0835391EF90E65F7408F0D083D082D0E032C0E0C082C0835391EFD4
:20182A0090E65F7410F0D083D082D0E032C0E0C082C0835391EF90E65F7420F0D083D082D8
:20184A00D0E032C0E0C082C0835391EF90E65F7440F0D083D082D0E032C0E0C082C083532C
:20186A0091EF90E65F7480F0D083D082D0E032751000751103903A12120825903A12E0FFBA
:20188A00BF4324903A13E0FFBF441C903A14E0FFBF3014903A067401F075101075110A9093
:2018AA00008A1208258005903A06E4F07F00EF248AF582E43400F583E0FEBE30550FBF0A10
:2018CA000040EB7510FB751105903A121208257F007E00EE2412F582E4343AF583E0FDEF7F
:2018EA00248AFBE43400FCEDC4540F901BC693FA8B828C83F00FEF248AFBE43400FC740FC5
:20190A005D901BC693FD8B828C83F00F0EBE050040C12290E680E0FF74084FF090E60074D6
:20192A0012F0900002120263538EF8120A38C2AFC2E89000437402F090004414F090004564
:20194A0074B8F090E668E0FF74084FF09001007402F07EE47F0E8F05900101EDF09001026D
:20196A00EEF09001047402F07ED17F158F05900105EDF0900106EEF09001087402F07EE7C1
:20198A007F158F05900109EDF090010AEEF090010C7402F07EFD7F158F0590010DEDF09074
:2019AA00010EEEF09001107402F07E137F168F05900111EDF0900112EEF09001147402F064
:2019CA007E297F168F05900115EDF0900116EEF09001187402F07E3F7F168F05900119ED99
:2019EA00F090011AEEF09001207402F07E557F168F05900121EDF0900122EEF09001247408
:201A0A0002F07E0B7F178F05900125EDF0900126EEF09001287402F07EF57F178F059001A2
:201A2A0029EDF090012AEEF090012C7402F07E0B7F188F0590012DEDF090012EEEF090015D
:201A4A00307402F07E217F188F05900131EDF0900132EEF09001347402F07E377F188F05D1
:201A6A00900135EDF0900136EEF09001387402F07E4D7F188F05900139EDF090013AEEF09F
:201A8A0090013C7402F07E637F188F0590013DEDF090013EEEF05391EF90E65D747FF0908C
:201AAA00E65CE0FF747F4FF090E65F74FFF090E65EF0D2E8D2AF90E61174A0F00000000007
:201ACA0090E61074A0F00000000090E61274E0F00000000090E613E4F00000000090E614BF
:201AEA0074A0F00000000090E615E4F000000000121879120CAB90E680E0FF74824FF09073
:141B0A00000A12026390E680E0FF74F75FF02212191D80FECF
:201B22005A54455800696E6F7574747261666669632055464D20312E313579006465666154
:201B4200756C740012010002FFFFFF401A2200010000010203010A060002FFFFFF40010048
:201B620009022E00010104C0320904000004FFFFFF00070581020002000705010200020082
:201B82000705820200020007050602000200000009022E00010104C0320904000004FFFF5B
:201BA200FF00070581024000000705010240000007058202400000070506024000000000E2
:201BC2000403000030313233343536373839414243444546000000000001880101010101CC
:201BE2000702070202020202002000000000000020003600000000003F020190010101017D
:201C02000702020702020202002000000000000020000036000000003FFF000000000000F4
:031C2200000000BF
:06023500E478FFF6D8FD9D
:20021300794EE94400601B7A01901BD7781775923AE493F2A308B800020592D9F4DAF2751C
:0202330092FF38
:20023B007800E84400600A790075923AE4F309D8FC7817E84400600C7901903A00E4F0A345
:04025B00D8FCD9FAF8
:0D020600758121121B1EE5826003020203B8
:041B1E0075820022AA
:00000001FF
